:020000040209EF
:20000000FFFFFFFFFFFFFFFFFFFFFFFFFFFFFFFF5DCE1E0E1DA94459F51DB7989AB5DFB5F2
:20002000482CB017980BC2BBE11C5D1488906DC3A1397FF15A9A7393D8AC758361BCD6728A
:20004000D45E08CD95FC9A8905FB8E46CC12DF9456DFE3BCE312BD47D3BE315C35AC73F190
:200060005FB608807AFC7306332C5CF04332D0A4F3F2A73A3135316AF0FA848626F07B1AFA
:200080008CEADE5219E7A44A994DCE7F5CB4FA1B5446BAFCBBB7979E3EC99EE729650F0C48
:2000A0004AE25678FAE62C86C3590F3E8F8C748AD0304AE16DC150B2367F2BD05706784A08
:2000C000CAFC125FB1856803B97C1B0AD870A47E095020FB4B5B26195550B14EC55778A350
:2000E00018A41462E721FA2765128C26814841120B1BEB731F9E66AE2FA934F579CD36305E
:2001000089BCBE736F6C68766989624B43D76577E3489ED099154A385D40FE94D432F28C9F
:20012000577086454168845BF044458AAB36BE2B5C1C0B0001019327681C07001C79D9B8E8
:2001400003C1EF1193FF07735E0B1E0500040902000409020000000000000902000000001A
:20016000A5125A5A0000000000000000000000000000000000040902007020000030000045
:2001800000800000000000000000000000000000D320006B1538ECD0000000000000000078
:2001A000808316CBA91995DFE6393CA52EDA6CCCE29A3167D45C0BA9DA39845D5F18E7E2B9
:2001C00094654BBB6A87A1C2F2B587EDD760FFD873ED2D62745B475D223EE9CAF127AE0662
:2001E00058DB027E6CA2DCAAAB07F29FC376D9B3A4BAB62013678C08CF172753CE2034BC30
:200200004C059F5BD2B958917440DE18E697DF214E382372949452A97EE59F88884A6EDD13
:20022000E81C06E2AECF8C3D0B2973C645F337BFF9D6154FAC84346E0D078F1D50D574A9EA
:20024000C4A6690305F281E2DFA5F6784B5B6CFB3936B943ABC0DCB711CF875B0E4BC36ABE
:20026000492A617E6409D0139E466F092BDB4AF6462A90B08092BCC274E25C41C9DFCEB8D9
:20028000C3D9F9ABAAE0FB12126A08AA1780A4055D96DD29ADD2744C4AE7C5E2B1C3FE4750
:2002A00000010001000000000000000000000000000000000000000000000000000000003C
:2002C00000000000000000000000000000000000000000000000000000000000000000001E
:2002E0000000000000000000000000000000000000000000000000000000000000000000FE
:200300000000000000000000000000000000000000000000000000000000000000000000DD
:200320000000000000000000000000000000000000000000000000000000000000000000BD
:2003400000000000000000000000000000000000000000000000000000000000000000009D
:2003600000000000000000000000000000000000000000000000000000000000000000007D
:2003800000000000000000000000000000000000000000000000000000000000000000005D
:2003A00000000000000000000000000000000000000000000000000000000000000000003D
:2003C00000000000000000000000000000000000000000000000000000000000000000001D
:2003E0000000000000000000000000000000000000000000000000000000000000000000FD
:200400001A481B491B4A002A05D00368001D0B60091D121FF9D118481849002903D002607F
:20042000001D091FFBD116481649174A002A05D00368001D0B60091D121FF9D113481449C2
:20044000144A002A05D00368001D0B60091D121FF9D111481149002904D00260001D091FD4
:20046000FBD100BF0E4880470E480047F00E100200002C00AC050000AC052C00F02000005D
:2004800068201002CC6B2000000000009C14100200602000CC0B0000CC6B200000000000FB
:2004A000410C0902AD26090200F002F800F04AF80AA090E8000C82448344AAF10107DA456D
:2004C00001D100F03FF8AFF2090EBAE80F0013F0010F18BFFB1A43F001031847FC0607001C
:2004E0003C070700103A24BF78C878C1FAD8520724BF30C830C144BF04680C607047000083
:200500000023002400250026103A28BF78C1FBD8520728BF30C148BF0B6070471FB56AF084
:2005200056F86AF0FBFA0400002000216AF0FBFA401C6060002000216AF0FAFAE0601FBDC3
:2005400010B510BD00F05CFB1146FFF7E7FF02F0ADF86AF0D3FA03B4FFF7F2FF03BC6AF01A
:20056000D7FA00001CB500F06BFA03460122414941486AF0E2FA04206AF0E4FA00F060FA29
:200580003E49496808720B20ADF800001420ADF8020068466AF0DBFA1CBD394890F8A71583
:2005A00041F0040180F8A715DCE72DE9FF5F04464FF0010909FA04F0324FC6B2381990F83E
:2005C0002CB004206AF0BEFA584600F09CF8584600F05CFA05462749CDE900B5334603223F
:2005E000443925486AF0A9FA584637F090FB0B20ADF808004FF0000AADF80AA04FF0010311
:2006000097F83A2003FA04F1C8B23242DFF86C8003EB00274FEA00260FD02DB1002118E004
:20062000039700F8049004E0012108E0039600F804A002A86AF08BFA16E04DB10021584635
:2006400000F040FAD8F80400015D0129EED008E00121584600F036FAD8F80400015D002933
:20066000DED004206AF078FA584600F042FABDE8FF9F00001C1080080330106F10142C0019
:2006800050062C00980C2C0030B5024600200A4B01240146944003EB410292F81D51092DC7
:2006A00004D192F81C21224200D00120491CC9B20829F0D330BD0000980C2C0010B50446A9
:2006C00001460022042036F0F1FF012221460B2036F0ECFF144920460968BDE81040084739
:2006E00070B50D46044601460022042036F0DEFF0E4A29462046126890470B4920460968FF
:20070000BDE87040084710B50446FF280BD000F0BDF908B1012200E000222146BDE8104044
:200720000A2036F0C3BF10BD0C052800FC0428007CB5C5B204206AF005FA284637F0E7FA1E
:20074000284600F0A3F90446184823460122C470174918486AF0F1F90B20ADF800001D2024
:20076000ADF80200019468466AF0F1F90CB1002100E00121284600F0A5F904206AF0ECF90C
:20078000284600F0B6F97CBD10B504460748407936F066FFA04201D1012010BD002010BDE2
:2007A00005488078002800D001207047F4002C00147580080330106F2A172C001FB51048A8
:2007C00007226946C0786AF0CCF90F4A0D49BDF80000126809789047094C0C4AA41D102117
:2007E00020801268BDF804009047A0800B20ADF808001E20ADF80A0002A86AF0A8F91FBDE9
:20080000281D2C00B2012C009C152800981528003EB50F4C032202A920796AF0A2F90E4DD3
:200820000C49BDF808002A680978904760812A68BDF80A0061799047A0810B20ADF80000E8
:200840001F20ADF8020068466AF081F93EBD0000341D2C00B3012C009C1528002DE9F041B8
:2008600001221D4DD6073146284636F0E0FE1B4900201B4C487001F1100021688847194FC0
:2008800020B90022184938466AF057F9134821681430884728B914490022283138466AF04C
:2008A0004CF9286D10F0004F01D0002200E001223146284636F0DCFE0C48026802B19047EC
:2008C0003146284636F0B1FE31462846BDE8F041002236F0ACBE000000100040C4012C00B0
:2008E000A01328000001106FD0438108701E2C002DE9F047044649480F4606684FF0010814
:20090000DFF81C910EE0B4FA84F0C0F11F00C1B2781808FA01F556F820302A46484600F0EC
:2009200067F8AC43002CEED1BDE8F0872DE9F04704463A480F4606684FF00108DFF8E490F3
:2009400010E0B4FA84F0C0F11F00C0B2391808FA00F556F821302030C1B22A46484600F0AB
:2009600047F8AC43002CECD1DEE72F4801220021D0F800312A4800F03BB82B4802220121D9
:20098000D0F80431264800F033B82548006C5E2100F0FC00ACE72248006C5E2100F47F4032
:2009A000A6E71F48006C5E2100F47F00A0E71C48006C5E2100F07F409AE71A4840300068A5
:2009C0007E21C0B2B2E71748403000687E2100F47F40ABE71348403000687E2100F47F000D
:2009E000A4E71048403000687E2100F07F409DE770B50D461C46114636F017FE34B10A48C7
:200A0000A44650F82500BDE8704060472B46BDE870400122054906486AF08FB808ED00E088
:200A20000010004000480040801E2C009C4581080021106F0E480068002800D00047704756
:200A400010B540F616406AF091F8012121EA503010BD0EB50420019001208DF80800054974
:200A600040208DF800000968684688470EBD000064022C00DC042800202801D22B487047F9
:200A8000402801D22A4870470020704770B505462848405D00F00304284636F0E1FDFF280E
:200AA0000ED0022C0CD0FFF7E7FF0446284636F0C6FD0146226D00200A4200D0012070BD71
:200AC000022070BD70B50D46064636F0C9FD0446304636F0B4FD0146FF2C07D02046FFF7DB
:200AE000CBFF2A4636F0C4FD002070BD6FF0010070BD70B5044636F0A2FD0546204636F0F0
:200B0000AFFD0246FFF7B8FF0446FF2A0AD00022294636F08CFD01222946204636F07DFD0F
:200B2000002070BD6FF0010070BD00000010004000480040AC1F2C007FB521218DF80C10F5
:200B400000218DF804108DF80510244D0421ADF8061002902868002813D04C200090224C59
:200B60001F48204B26688069002201A9B047002807D04E20009024681A4B002203A928681D
:200B8000A0477FBD2DE9FF4121218DF80C1001218DF8041000218DF80510104C0421ADF85D
:200BA000061002900E4E206898B160200E4D0D4B009015332F68002201A9B069B84740B1E9
:200BC0006220084B0090206815332C68002203A9A04734F0D2FF7062BDE8FF8190212C00CE
:200BE00024252C00D40010025813280067F09EBF4FF000501049EFF30582104B9847FEE7E3
:200C000070474572726F722120506C6561736520696D706C656D656E7420796F7572204935
:200C200053522048616E646C657220666F7220495251202564210A00020C0902BC0E2800DF
:200C40001FB572B610A11F2069F095FF0F49104834F0E6FF4FF4005038F08DFF802038F0F3
:200C600024F803210B4839F0D2F80BA00FC88DE80F00684637F0B1FB4FF0FF3069F080FF21
:200C800069F090FC1FBD000043000000F10B0902780C10021CC90F02353E945DEBBCEF11B2
:200CA00092B87550C258941610B50C4600F013F98C490C5410BD2DE9F0410D460646002442
:200CC0004FF0010808FA04F2324207D0D7B2384600F001F92946384636F026FE641CE4B24B
:200CE000032CEFD3BDE8F08136F080BD10B592B0044600F0F0F87B49085C012805D012B079
:200D00002046BDE8104036F081BD684636F0ECFD40F2FF30ADF812004FF4A070ADF8220025
:200D20006946204636F08DFD0121204636F0FCFD12B010BD2DE9F34F95B00C46159800F02C
:200D4000CAF805460020119060788DF84800A0788DF8490064A0634E0068139020794FF49E
:200D6000A07A00EB80004FEA4009207840F2FF3B40B1012868461ED036F0B6FD705D0128E3
:200D800026D028E0705D012805D0159836F03EFD17B0BDE8F08F684636F0A6FDADF812B0B3
:200DA000ADF822A06946159836F04BFD0121159836F0BAFDECE736F097FD705D012801D101
:200DC0008DF80100ADF812B0ADF822A0694670E001208DF801002078022805D19DF80100EB
:200DE00080F001008DF8010000200DF148080DF1440C13AF18F8003000214D1C05EB85023D
:200E00009201B2FBF3F63F2E0CD8B2FBF3F603FB162212F0FF020FD03E5C964202D93A54CF
:200E20000CF80010E9B20F29E7D9401CC0B20228E0D300206B4638E00CF8001000213954B5
:200E4000F3E703EB800162784A82A1F824A0A2788A82E678451CAE4206D14A448A82B2F559
:200E6000806F01D3A1F814B0217804291CD103EB40019DF844208A72521C02EB82006278C4
:200E80008001B0FBF2F081F83A00012081F832009DF84500C872401C00EB8000A27880014F
:200EA000B0FBF2F081F83B00E8B2E1788142C8D81946159836F0C5FC6AE710B500240B4A19
:200EC0002146535C834201D1012402E0491C0A29F7DB204610BDB0FA80F0C0F11F00C0B265
:200EE00070470000AC052C00FFFF0000B8C90F02F8B5012416460D46012807D003460024E0
:200F000001228449844869F018FE11E0834869F03CFE804900902B4602223831804869F0DF
:200F20000CFE012D01D0002402E07E49307808702046F8BD7CB5064615460C46774869F05E
:200F400024FECDE900407349334603228031744869F0F3FD0020CDE9004073482B46022203
:200F600001783046B6F762FD7CBD3EB514460091CDE901230546034604226C49684869F00D
:200F8000DCFD052C0BD16949654800225C31401C69F0D3FD2846BDE83E4028F0ADBF3EBDC8
:200FA0002DE9F04786B080460EA8164690E8A0028A463A462946594869F0E7FDCDE9005019
:200FC0005A49334603229C31554869F0B6FD0024AFF26901C9F80010052E0DD05349504816
:200FE00033460122D431801E69F0A7FD40F20A4406B02046BDE8F08703208DF808008DF8C8
:20100000098005208DF80A004648ADF80C5004974268002AECD002A950469047E8E72DE9DC
:20102000FE430546DDE90A670020308000933A4814468846134602223D49801C69F07DFD6E
:20104000022C09D03A4900223431334869F075FD40F20A40BDE8FE8302208DF800008DF86B
:201060000150304D01248DF804406A68694640469047A0F55061013900D16C703D60348058
:20108000E8E72DE9FF410D4601261C468DF804600093274917468DF805001346022264316A
:2010A0001F4869F04AFD032F11D1E00702D08DF8086002E002208DF8080003208DF8060030
:2010C00018484268002A02D001A928469047BDE8FF817CB517490546FC22D1E90001CDE98B
:2010E000000114488038A0F18001C36F0E48B6F7E9F90D4C48B90E49094823780122A03121
:20110000801E69F01AFDFF2020700648456020787CBD0000800180080033106F0000506FD4
:201120000230106FB0052C0000002C009002800898038008D4CA0F0210B50124012807D01B
:201140000346002401225349534869F0F6FC06E0012901D0002402E0504910780870204697
:2011600010BD07B582B000230122CDE9002304AB0222B6F75BFC05B000BD07B5474B82B0CC
:201180005A784AB100225A700123CDE9003204AB0222B6F720FCEEE70020ECE72DE9F843D5
:2011A0000546DDE908670020308088460093394939481446134602223031801C69F0BDFC95
:2011C000022C09D0334900226031334869F0B5FC40F20A40BDE8F88302208DF801008DF88B
:2011E00000502E4D01248DF802406A68694640469047A0F55061013900D16C703D603480DC
:20120000E8E72DE9FC4101268DF8056088468DF804001D4600931F491F481746134634464F
:2012200002228C31801C69F088FC032F0BD000241A484268002A04D0002C02D001A94046EB
:201240009047BDE8FC81E80702D08DF80660EFE702208DF80600EBE73EB504461048D0E946
:201260001D12CDE900120146036F702202A8B6F729F950B907499DF808300122BC3106482F
:2012800069F05BFCFF208DF80800044844609DF808003EBDA80580080033106FB8052C009A
:2012A000DCCA0F0270B5134601249A4A092806D2DFE800F00C15212A333C454C560000244A
:2012C00022469549954869F038FC12E0142900D9142111708F480A4619460C3007E01429BA
:2012E00000D9142151708B480A461946203069F051FC204670BD142900D9142191708548FB
:201300000A4619463430F2E7142900D91421D17080480A4619464830E9E7142900D914214B
:2013200011717C480A4619465C30E0E7142900D91421517177480A4619467030D7E708295B
:2013400000D908210A4619467548D0E71E2900D91E2173480A460838017019461030C6E701
:20136000072900D907216E480A461946C01FBEE72DE9FC479246DDE90A450A4600262680F1
:2013800002218DF804108DF80500AAF102000827DFF880814FF0070911280AD2DFE800F048
:2013A0001E098C092C0949093B0957091309650972005949534601222C31584869F0BDFBDE
:2013C00040F20A466BE08DF806901046D8F8082001A9904752482860278060E001208DF8A7
:2013E00006001046D8F8082001A9904749480C30286098F800000CE003208DF80600104643
:20140000D8F8082001A9904742483430286098F80200208043E005208DF806001046D8F8B2
:20142000082001A990473B485C30286098F80400EFE704208DF806001046D8F8082001A95B
:20144000904734484830286098F80300E1E706208DF806001046D8F8082001A990472D48E9
:201460007030286098F80500D3E78DF806701046D8F8082001A990472948083028601038B2
:201480000078C6E709208DF806001046D8F8082001A990472248C01F2860A4F800902088FF
:2014A00000901D491D48534602225431801C69F044FB3046BDE8FC878DF806101046D8F8FC
:2014C000082001A9904713482030286098F801009FE73EB504461348D0E90612CDE90012E8
:2014E000A0F5007143694FF4057202A8B5F7EAFF50B909499DF8083001228C31074869F091
:201500001CFBFF208DF80800024884609DF808003EBD0000C0052C00880680080033106F89
:2015200009002C0058CD0F022DE9FC4117460C4606461D46012910D17079B1EB901F0AD175
:201540001A46394630463DF0AFFD08B9012513E00120BDE8FC8180090BD0FF230022214631
:2015600030463DF00EFA30B1022C14D0032C12D013E0022500E0032532460021FB4869F065
:2015800004FBCDE9000523460322F949F94869F0D4FA0020DDE7A41EE4B22C703068386051
:2015A000B088B880D4E710B53F2200214270FF2301E0082A08D34418083A491CC9B2A37066
:2015C00092B20829F5D310BD0123934008445B1E837010BD70B5002285188C18AB7894F84E
:2015E0002A4023420CD12343521CD2B2AB70082AF2D3427891F8201011444170012070BD0E
:20160000DB4900224431DB4869F097FA002070BD2DE9F047894641780023914236D3494652
:20162000002441F82A4F4C60002507194FF0010AB97809EB040617E05FEAC17C11D00AFA08
:2016400005FC96F82A805B1C48EA0C0886F82A8097F80280DBB228EA0C0887F802809342D2
:2016600004D049086D1CEDB20029E5D1934203D0641CE4B2082CD7D3934207D189F8202034
:201680004178891A41700120BDE8F0870020FBE72DE9FF4F002681B00120994692468B469A
:2016A00035463746B04600900198404490F82A401DE0E00718D05F4505D26D1C64087F1CC6
:2016C000EDB2FFB213E0802000EBC51203460AEB0601A9A038F005FA10B10220009011E04C
:2016E0008036B6B24E4518D264086D1CEDB2002CDFD14E4511D208F1010000F0FF08B8F1CF
:20170000080FD1D39A4901226C319A48009B69F014FA002005B0BDE8F08F0120FAE72DE976
:20172000F74F002690464FF0010B35463746500605D04FEAD810C00180301FFA80F841464F
:20174000012037F08DF85FEA000A3AD04FF000090098484490F82A4023E0E0071CD0019892
:20176000874205D26D1C64087F1CEDB2FFB218E0802000EBC51203460AEB06017EA037F005
:201780004EFF08B1022012E08036B6B2464502D94FF003000BE023D005F101054FEA5404FE
:2017A000EDB2002CD9D1464503D94FF00400834607E015D009F1010000F0FF09B9F1080FC1
:2017C000C6D36B495B4601229C316A4869F0B5F9BAF1000001D037F04EF80020BDE8FE8F37
:2017E0005046FBE72DE9F0410F460546006F64491646884216D1002404EBC40000EB04108B
:2018000005EB4000817AC90708D0C17AB14205D1062239460C3069F0C2F930B1641CE4B203
:20182000022CE9D30020BDE8F08104EBC40000EB041005EB40000A30F5E7514A016F9142B2
:201840000DD1002101EBC10202EB011200EB4202927AD20705D0491CC9B20229F2D3002001
:20186000704701EBC10202EB011100EB41000A30704710B501468023002242A038F031F9E1
:2018800008B1002010BD012010BD00B5A1B08021684669F089F9364936480022CC31801CCC
:2018A00069F04BF96846FFF7E4FF21B000BD70B50C460546FFF78EFE002807D0322120467A
:2018C00069F077F92846BDE87040D2E770BD30B5A1B00C4605468023002201A926A037F067
:2018E0009EFED8B92246294601A8FFF77BFF010014D001A8FFF7DBFF80B12A4600211B4848
:2019000069F043F900901A491A4823460222E831801C69F012F9012021B030BD0020FBE756
:20192000F8B506468021012036F09AFF04000AD001468023002210A037F071FE002520B107
:201940009EB125672FE0012524E00D49206F884202D12178022926D018B1207808B1FFF727
:2019600094FF002EEDD1022511E00FE00000306F380780080030106F42545F46544C0000F1
:201980003355335542545F46544C00000325204636F071FF33460222F649F748009569F02F
:2019A000CCF80020F8BD2046F8BD2DE9FE43002607463546B046817902AB6A46FFF7B4FD3A
:2019C000F8B10020FFF7ACFF06001CD09DF808206946FFF707FF040017D0E28CE17FFFF794
:2019E0009EFE050013D00146E28C404669F0E6F8218D81421DD021463046FFF758FF09233D
:201A000006E0012304E0022302E0042300E00523D84901224031D84869F08FF815B12846B9
:201A200036F029FF16B1304636F025FF0020BDE8FE83E08C38813046FD6036F01CFF012031
:201A4000F5E7FEB5002405462646817902AB6A46FFF76AFDC8B10120FFF762FF060016D08B
:201A60006A892046E96869F0A9F80746C34C306FA0420ED08021304669F096F8022034674C
:201A800030703046FFF78FFD28E001236EE002236CE09DF8082069463046FFF7A3FE040046
:201AA0001CD0B548218D801CB94209D1E18C6A89914205D1AF490022743169F03EF84BE09C
:201AC000AC490022A03169F038F821463046FFF781FD40B33221204669F06BF83046FFF770
:201AE000ACFE040021D02078002140F0010020709DF8080060700098C4F80200BDF8040051
:201B0000E0806889E0842785288960847F30C0F3C710A077A18469894A0608D0012202EB30
:201B2000D111C9B205E00A2320E003231EE0C1F3C711E0770844C2B221463046FFF768FD37
:201B400078B16B89E17F2046EA68FFF7A1FD50B13046FFF78EFE40B1304636F08CFE01208B
:201B6000FEBD042302E0072300E0082381490122CC31814868F0E1FF16B1304636F07BFEA5
:201B80000020FEBD2DE9FE43002705463E46B846817902AB6A46FFF7C7FCF8B10020FFF750
:201BA000BFFE07001CD09DF808206946FFF71AFE040017D0628C4AB3A08C38B30021204687
:201BC000FFF7ADFD060021D00146628C404668F0F5FFA18C814215D0052304E0012302E080
:201BE000022300E0042301226549634868F0A5FF16B1304636F03FFE17B1384636F03BFEFC
:201C0000002014E7608C2881EE6002E000202881E860384636F02FFE012008E7FEB5002619
:201C200004463746817902AB6A46FFF77DFC48B30020FFF775FE060026D09DF8082069462B
:201C4000FFF7D0FD050021D02289A87FB2EBC01F1ED8EAB13846E16868F0B0FF0746238925
:201C600000212846E268FFF713FD98B120896884AF843046FFF7FDFD70B1304636F0FBFD59
:201C80000120FEBD012308E0022306E0032304E0042302E0052300E0082339490122343101
:201CA000354868F04AFF16B1304636F0E4FD0020FEBD3EB505460024817902AB6A46FFF738
:201CC00033FCB0B10020FFF72BFE040013D09DF808206946FFF786FD78B1AB6800F1080133
:201CE0001622184668F056FF204636F0C4FD01203EBD012302E0022300E00423204901227A
:201D000068311D4868F019FF14B1204636F0B3FD00203EBDFEB505460024817902AB6A46C0
:201D2000FFF702FC28B30020FFF7FAFD04002BD09DF808206946FFF755FD38B300F108012F
:201D4000AB6816220E46184668F029FF40B116223046A96868F01EFF2046FFF78AFDB8B195
:201D60002046FFF786FD98B1204636F084FD0120FEBD07E0680880080030106F33553355B4
:201D800068098008012304E0022302E0032300E0082301223549364868F0CFFE14B120469B
:201DA00036F069FD0020E3E710B540F6045407281ED2DFE800F01D04080C101418000846C5
:201DC000FFF7F3FD12E00846FFF73BFE0EE00846FFF7D8FE0AE00846FFF720FF06E0084625
:201DE000FFF767FF02E00846FFF794FF00B10024204610BD70B505460C6803461B491C48D1
:201E000001223831801C68F098FE012D0CD0022D1AD0032D1BD16068002818D0217889076C
:201E200015D5C1790E300CE0606800280FD00446C1790E3005463CF07DFE012807D1E17976
:201E40002846BDE8704042E5BDE870401DE570BD10B500F022F8AFF2AF003BF0A1F8AFF290
:201E60006B00BDE810403CF035BA0000080A80080030106F802291010FA037F01EBF184659
:201E800093B28AB201460CA037F02BBE184693B28AB2014608A037F0C2BB10B50121084815
:201EA00037F0B5FF30B100220649074868F045FE002010BD012010BD42545F46544C000055
:201EC00078CD0F026C0A80080030106F10B58CB00446002201208DF818008DF819204FF4D3
:201EE000C053ADF81A308DF804008DF80520ADF80020ADF806106B4601AA06A920463BF091
:201F000082F830B10022BDF8001020463AF08BFC10B100200CB010BD0120FBE7F0B58FB017
:201F200000240746ADF8344001200E468DF820008DF821404FF4C051ADF822108DF80C005B
:201F40008DF80D404FF428501546ADF80E00ADF8084002AB03AA08A938463BF0E7F9D0B1E4
:201F6000BDF80800000711D50DAB03AA08A938463BF049F878B1CDE900543346BDF8342002
:201F8000012138463AF08AFC40B104E00022AD49AD4868F0D2FD00200FB0F0BD0120FBE759
:201FA00033B58FB00024ADF83440012105468DF820108DF821404FF4C050ADF822008DF816
:201FC0000C108DF80D4042F60120ADF80E00ADF8084002AB03AA08A928463BF0A7F9E0B145
:201FE000BDF80800000712D50DAB03AA08A928463BF009F888B110A8CDE900040223BDF801
:202000003420012128463AF049FC48B105E08D49002234318C4868F090FD002011B030BDAB
:202020000120FBE72DE9F047824687480025801C864E8EB014464FF4285842F601292F46F2
:20204000012904D0022964D003297DD1B6E0217800917C4953460222683168F06EFD0B9769
:202060000C9720788DF82C0061788DF82D10E0B301248DF818408DF819704FF4C050ADF83E
:202080001A008DF804408DF80570ADF83470ADF80680ADF800706B4601AA06A950463BF00E
:2020A00045F928B1BDF80000000701D58DF82E40ADF806906B4601AA06A950463BF036F94E
:2020C00028B1BDF80000000701D58DF82F4042F6A620ADF806000DAB01AA06A950463AF026
:2020E00092FF08B18DF8304000E00CE042F6C920ADF806000DAB01AA06A950463AF083FFB5
:2021000008B18DF831403368002B7CD00BAA002173E0A288A18ACDE900124A495346032267
:20212000AC3168F00AFD0297039704970597A08AADF80A00A188ADF8081028BB208BADF807
:202140000C0042F6042C00E05AE00D27A1EB0C0240F20D43614518D00FDC414512D06FF45D
:202160002852D14225D1022802D01D46ADF80A70E0690088ADF810001BE0A22A10D0C52A42
:2021800017D10DE0E069049013E0082802D01D46ADF80A70E069016804914068059008E0AA
:2021A000012802D01D46ADF80A70E06900788DF81000336823B302AA01211EE0A288A18ABA
:2021C000CDE9001253460322214968F0B6FCA088404508D10097A08AADF8000033687BB152
:2021E0006A46022109E048450BD10097A08AADF80000336823B16A46032150469847054651
:2022000001E040F20A450EB02846BDE8F08710B586B004461421684668F0C6FC01208DF82C
:2022200000004FF4C050ADF80200AFF2072168463AF0BAFE10B1002006B010BD0348046038
:202240000120F9E7A40A80080034106F44062C00A40B80087CB509F099FF012025F008FEE9
:2022600025F012FEFE4C4FF0010594F8160280074BD594F8A7024FF00006800605D594F8F9
:20228000D40194F8C41188420DD094F8C401232135F04EFA00960196012294F8C401022399
:2022A000114668F090FC94F8C501242135F040FA01230096019694F8C5011A46194668F033
:2022C00082FC94F81602C0060DD594F8C7015A2135F02EFA01230096019694F8C7011A4613
:2022E000194668F070FC94F8160200070DD594F8C6015A2135F01CFA01230095019594F84A
:20230000C6011A46194668F05EFC94F89A02B5EB901F0FD100F03F001D2135F009FA009504
:20232000019594F89A02012200F03F000223114668F049FC7CBD70B5C94C94B0122594F8FA
:202340006E12B4F86C0261F31F4006904FF4FA50ADF83C000520ADF8400004208DF8440035
:20236000012000218DF83810C202ADF81020ADF814504203ADF800208DF808000203ADF86B
:202380001C208DF834108DF804008DF8480002228DF82C208DF830008DF82800ADF80C508A
:2023A00003228DF8241040F209408DF82020ADF84C003BF073FF24F0F8FC94F8F601A94EEF
:2023C00010F0060F08D196F88F00400704D4A020ADF81000ADF81C00A34CA07AC00705D0F8
:2023E0004FF48060ADF81000ADF8145048F021F8012047F0C3FC9B4A28210832012047F0D4
:2024000085FC0CAA012140F20220A6F7C6FD13AA022140F20320A6F7C0FD08AA01214FF409
:202420000170A6F7BAFD09AA012140F20520A6F7B4FD0AAA0121002047F068FC96F8140129
:2024400038B9069820F480400690E07A20F00100E07206AA0421022047F058FC10AA022167
:20246000042047F053FC0FAA0221032047F04EFC0EAA0121112047F049FC11AA01210520A9
:2024800047F044FC0DAA0121062047F03FFC12AA0121082047F03AFC04AA0221092047F0B0
:2024A00035FC05AA02210A2047F030FC6A4602210B2047F02BFC01AA0121122047F026FCD8
:2024C00002AA01210C2047F021FC07AA02210D2047F01CFC03AA02210E2047F017FC0BAA61
:2024E00001210F2047F012FC6FF001002BF0E2F904F094F914B070BD1FB535F0D1FD5B4913
:2025000004460520096888470346022258495948009468F012FBFEF743F908B111F057FD25
:20252000554E2022D6E90001A6F786FB534D40F242474FF0FF3800972C68514B424603A90C
:202540003068A0470028F6D09DF80C000121B1EB101F12D14FF4896000902C68484B002298
:2025600001A97068A047D0B19DF80C00112816D1DDE9010100F0EAFD11E0010906D002211D
:20258000B1EB101F05D147F086FA08E0A6F7C5FC05E00321B1EB101F01D135F0ACFF3048AF
:2025A00090F81702C007C6D0002001F010F901F084F8C0E72DE9F04136F06EFA2E4E054653
:2025C000C00706F1080605D096F8A70540F0010086F8A705680705D596F8A70540F004000E
:2025E00086F8A705280705D596F8A70540F0080086F8A705E80605D596F8A70540F01000CA
:2026000086F8A705A80745D596F8A705144F40F0020086F8A70597F8D40168F0D9FA28B166
:2026200096F8A70540F0800086F8A70597F82C0068F0CEFA28B196F8A70540F0200086F8CA
:20264000A7050124381990F82C0068F0C1FAE8B12046FEF719F8C8B196F8A70512E00000E7
:20266000980C2C0004122C008C102C00E4122800F80B80080130106F48062C005C13280016
:20268000B1CD0F0240F0400086F8A705641CE4B2082CD7D3ED4C96F8A7352A462468EA494B
:2026A000A446BDE8F0414FF0DE4060472DE9F04F8BB04FF4306442F2967033F0A8FBCDE939
:2026C000080142F2977033F0A2FBCDE900019DF8030003AD9DF80030BDF80120BDF8041093
:2026E00085E80F00BDF824009DF82020BDF821108DE80700D74D9DF823300822D44928468D
:2027000068F01BFA002203213C2068F066FA00220321372068F061FA00220321352068F0AF
:202720005CFADFF83493D9F800008047C8498246034601224031284668F0FFF9CA4EC7A218
:202740000021304668F021FA0746C8A20021304668F01BFABE4903460222643128460097A6
:2027600068F0EBF9002742F29478019702970397102201A94046049733F02EFB08B18DF864
:20278000137001AA0021B346304668F0FEF9B0490090434602228431284668F0CEF942F280
:2027A0009576019702970397102201A93046049733F012FB08B18DF8137001AA00215846FB
:2027C00068F0E3F9A249009033460222AC31AB46284668F0B2F96946282035F011FC35F020
:2027E00095FD4FF0000210B19949D43101E09849FC31584668F0A1F940F2EC409E4ECDE9DF
:202800000060A04D082320222F689CA19C48B84740F2ED40CDE9006099480123F0222D6826
:2028200099A1001FA84796483021001F006835F0A3FE35F044FC14F095F800F04FFCFFF7AD
:20284000B9FEFFF707FDFFF776FD00F0C5F800F091F88F4F8F4E4FF00208B87AB6F86011E3
:2028600096F814214FF45673CDF80080CDE90132C009CDE90310754D0D2303222D6886494E
:202880004FF0DE40A84729F06BFB844D95F8170320F0400085F8170395F8A50240F010009A
:2028A00085F8A50229F0FDF909F057FE12F044FF08F09FF868F096F928B168F098F90020FA
:2028C00015F0FEFA42E003F05FFA03F08BFF04F065FC0EF0A9FB14F0C5FD04F05FFD06F00D
:2028E0007FF806F04FFC06F046FD04F07FFF11F0C8FD0FF051FF0BF0A1FF2AF0BCF907F0FF
:2029000066FC04F043FB02F0F6FF11F029FE11F0F5FA96F8140108B11FF042FB11F002FB7E
:2029200013F078FC29F0D0F825F053FD27F068F8B87AC00701D01CF046F9CDE900485C4CA8
:202940000023574A246857A107A8A047288C33F0DBF8D9F800008047A0EB0A0301225549FE
:20296000584668F0EAF85448006880470BB00020BDE8F08F10B535F0E7F833F00EFD1E2080
:2029800035F0E1F911F024FC444C94F81702800703D501F0C6F902F0A6F994F840008007EF
:2029A00001D501F048F994F81702000605D514F087FC94F81702000603D494F81902C00713
:2029C00001D002F05BFD94F81702C00703D0BDE8104001F0A9B810BD294810B5001F0068CC
:2029E00047F0BCF802202CF0D5FA2A48B0F83E1119B94FF48C71A0F83E1188B269F0A2FD4B
:202A00002E4969F0E7FD69F065FD4FF4006180B20B4600222FF08DFB204991F8F20220F061
:202A2000E00081F8F20240092FF008FC2448017921B9007BC10701D1800703D5BDE81040B4
:202A40002FF0B3BC10BD0000F4081002BC0E2800300C80080230106FBC02280031343A32EF
:202A6000383A3135000000000000406F4A756E202037203230323500ACCD0F02696F51008F
:202A80004C062C004C13280065767451000000008C102C0004122C0094081002980C2C0009
:202AA000F92409026170705F7461736B0000000064132800480D80080C132800B76D5B4217
:202AC00068102C00002205E010F8013B491E1A44D2B289B20029F7D15042C0B270470000D7
:202AE0002DE9F04F9FB00025FF4C149515951695179594F88F00C0F3C0011E91010705D5F8
:202B000094F89D10CA0701D001F00105C0F3800B94F8E500F44E00F00101C0F38000143683
:202B20002768CDE91C01D6E91A01CDE91A01A6F10C0128226846199168F05EF806F11C0180
:202B400028220AA8189168F057F8D6E91101CDE9140106F180004FF4F072D0F83A101691B8
:202B6000C08FADF85C008246E049DF48D4F8BC91D4F8B88168F040F8C4E96E89149870641B
:202B8000BDF85400A6F8480006F180011698C1F83A00A1F83EA094F88F001E9961F3C300CD
:202BA00084F88F00010706D52DB194F89D1065F3000184F89D106BF3820084F88F001A98F1
:202BC000B066BDF86C00A6F86C0028226946199868F012F828220AA9189868F00DF894F812
:202BE000E5001D9961F300001C9961F3820084F8E50002F007FC642801D884F89900BC4D82
:202C0000DFF8F08295F8A002400601D5474528D02822B949199867F0EFFFB74928222831B7
:202C2000189867F0E9FF282119982AF009FB282140F22220189AA8F727FB474511D095F863
:202C4000A602000707D594F8980000F0800040F0500084F8980094F8C40040F0200084F8A5
:202C6000C40095F8F6010027C0F3410084F85F00A24984F82C7184F85E70D1F89825F265EB
:202C8000B1F89C15A6F8601014F88F0FA94620F00100B04604F81F0927F00EFA984E307D56
:202CA000E076B17B14F84C0F61F30300F17A61F3071004F8BC0995F8A202C0F3011001281F
:202CC00009D111F081F9012894F88F0068D020F0800084F88F00B5788A480821425D8248F7
:202CE000C63067F08EFF80482A4608219E3067F088FF7D4872790821A63067F082FFC8F8A6
:202D00004C70C8F8507096F8210004F8BA0F27F02FF999F8A702002140F3C010401CE070BA
:202D20004D46084613F0ABF860710121002013F0A6F820710221002013F0A1F804F82E0CB2
:202D40000021012013F09BF8607295F8A702C108A07A61F3010095F818138A0894F82A104B
:202D600062F3461184F82A1095F81413490961F38400A0721BF005FF0AF0D4FF14F82C1DD0
:202D800060F3451104F8561B207820F0040004F8E40995F81603400605D594F8BE0004E094
:202DA00040F0800095E794F8BF0084F89000B078C0EB0021307801EB5001B1FBF0F184F8AE
:202DC0002511FF21B1FBF0F084F8290195F87D0284F8B10044489430A0F5806151F87E2F76
:202DE00040F81E2F496841604FF6FF70A4F8E600A4F8E800B5F8AE03A4F83E014248C76256
:202E0000076347638763C76307644764876495F83B0300F00303012B02D0C043800701D16E
:202E200084F8147194F81421444C38A14FF0DE402468A047424B4FF4F0724FF440611B68FE
:202E4000294898471FB0BDE8F08F2DE9F84300200090062035F0BFFE0422694635F06AFEC4
:202E6000244C0098A04208D1062035F0B4FE4FF474721F4935F05EFE05E04FF4DC72314990
:202E8000032035F003FD062035F0A5FE0422694600F5006035F04EFE0098A04209D10620E7
:202EA00035F099FE2422284900F5006035F042FE05E04FF4E3722349032035F0E7FCDFF8FA
:202EC000308098F81802C0F3000012F0DDFD1F4E4FF4406908223368494603489847024DE3
:202EE0002868A0423ED033E004122C00BCCD0F02980C2C0055AA55AAB40E2C0050062C0025
:202F0000A2002C00DED60F0218132C006170705F6366675F72657365743A206C65615F6D1D
:202F20006F64655F656E61626C652025642C2069736F5F6D6F64652025640000BC0E2800B4
:202F4000D81328009CCF0F0268102C00DC132800686800BB3368042240F68C4105F18C0056
:202F6000984718E06C684FF4F077BC420DD933683A4649466D48984728B100226C496D4875
:202F800067F0DBFD07E06F6007E03368A2B2494666489847F0B3FFF7A3FD98F840004446C7
:202FA000800708D594F8340000F0FE0084F83400FF2084F82C0067F015FE78B194F8A102C6
:202FC00000060BD594F8170220F0020084F8170294F8400020F0020084F8400040F2DC50C7
:202FE000A08194F81A02410609D495F88E1089060ED540F0400084F81A02400608D50220FA
:2030000084F86F0294F8140220F0800084F81402BDE8F883FFE7BC42B5D24749281921443E
:20302000C4F5F07267F0B6FDADE7F8B505460020ADF8000014460E46062035F0CCFD022234
:20304000694600F5806035F075FDBDF80000A0F52A41553901D00020F8BD062035F0BBFD69
:2030600000F2024006FB04002246294635F062FD0120F8BD314B4FF4F0724FF440611B685E
:203080002A481847F8B5064628480D46301A84B2A00709D004F00300361A2146201A84B285
:2030A00001F00300284485B2A80703D0A8088000001D85B21E491F48234602221831C01CF3
:2030C000009567F03AFD1D4B04F54064A1B21B6801B02A463046BDE8F040184708B5FFF774
:2030E000B4FE00200090062035F075FD0422694600F5206035F01EFD1149009888420AD190
:20310000062035F068FD4FF4BC720E4900F5206035F010FD05E040F27F220B49032035F03C
:20312000B5FBBDE8084026F023BF000004122C006C0D80080030106FBCCD0F02D81328005B
:2031400055AA55AA8C102C00A9CF0F0213B5BDF8000088B30B2807D0162835D0262802D1FA
:20316000684620F026FF1CBDBDF8020014281BD009DC88B1022813D0042801D00528F2D19D
:2031800010F071FF1CBD1D2811D01E2815D01F28F8D129F099FE1CBD684601F0CAFD1CBDBD
:2031A000684602F086F91CBD00F037FD1CBDDDE9000114F04FF81CBD02E029F01CFDFAE73A
:2031C000684603F044F9F6E716F06EFEF3E7000001218140C8B20021FDF76DBDFE4A9179FA
:2031E000012901D019B100E0D0710020704701207047F94810B5401C35F094FA802067F02E
:20320000ABFCBDE81040012000F01BBB2DE9F04F054687B04FF0000AF048EF4CCDE905A03D
:20322000EF4FA179E27897F89F05CDE90025CDE90210EC48DFF8B493564603780522EA4943
:20324000484667F07AFC97F8A505022805D1182D03D01A2D01D0222D7ED12079162809D15B
:20326000162D07D01D2D05D01E2D03D0607808B1FFF7BFFF01F0F1FD804610F04EFB6378E9
:2032800097F8A52501A9009581E80D01D649237906226831484667F050FC1B2D04D0162D13
:2032A00022D0192D26D028E010F037FB002853D010F033FB03284FD010F02FFB05284BD071
:2032C00097F8A505002847D0022845D02079162806D0192804D01A283ED015283CD00CE0F0
:2032E0006078002838D108E02079052805D0062832D102E02846FFF771FFBD4F97F81702A7
:20330000C00729D0A079002826D12420E071284600F039FC257197F8CD014FF0010BFF2828
:2033200004D0AD480B300078FF2811D197F8CE01FF2804D0A8480B304079FF2808D197F83C
:20334000CF01FF2815D0A4480B30807AFF2810D0A148C07828B100E099E1A2484078A84289
:203360007DD097F83103C00622D502F054F8B0B90BE0182D01D01A2D02D1802067F0ECFBE0
:20338000984884F803B001787FE102F03BF897F87412884203D901F060FD032804D08E4842
:2033A00000210B30017003E08B4800210B304171284600F0D8FB804697F8CD01FDF77DFDBA
:2033C00020B197F8CD01002167F020FC97F8CE01FDF773FD20B197F8CE01002167F016FCB0
:2033E000834890F8CF01FDF768FD28B18048002190F8CF0167F00AFC7748801C35F092F9CF
:203400000024284600F0A5FB38EA000009D072480830005DFF2804D0754890F817020006E1
:2034200071D4DFF8B49104EB840709F10B0919F8070090B30699095DFF2946D0FF282DD0E1
:203440002046FFF7C5FE0BFA04F040EA0601CEB207EB09018946C0B2FDF76CFC00E009E140
:20346000B8F1000F09D05C48D9F800201A3039180A6099F80400087149E00598401CC0B27F
:20348000059099F8011099F8020099F80320014402FB01A01FFA80FA39E016E0B8F1000F71
:2034A00035D05048007800F05EFB50BB2046FFF78FFE0BFA04F040EA0601CEB24649C0B20F
:2034C0001A313944FDF736FC21E02046FFF780FE48496420096888470BFA04F0C0B2FDF76F
:2034E00005FCB8F1000F12D00698005DFF280ED0394807EB09011A3038440A680260097998
:20350000017104E0FFE70BFA04F03043C6B2641CE4B2032CFFF475AF01213046FDF7CBFBDD
:20352000334C94F8CD01FDF7C8FC20B194F8CD01012167F06BFB94F8CE01FDF7BEFC20B116
:2035400094F8CE01022167F061FB94F8CF01FDF7B4FC20B194F8CF01032167F057FBB8F197
:20356000000F22D1BAF1000F05D00599BAFBF1F0401E84B200E00124192D01D0162D01D1C1
:203580004FF4FA74802067F0DDFA134804EB8401002280F806B049000095CDE9012113467E
:2035A000027815A1401C35F072F8284600F0D1FA38EA000064D0DFF8209000273E4609F145
:2035C0000B0906EB8600494619F80020032A53D100EB010816E00000E4132C00650E2C00A3
:2035E00050062C002F002C00580E80080230106F980C2C008402280064697361626C655F9E
:203600006C65640098F80400A8B3002404EB840019F80010022901D003290CD100EB0901D4
:2036200008F101000422491C67F0B9FA18B90BFA04F03843C7B2641CE4B2032CE6D3D7B1B7
:2036400006EB860101EB09000123417898F80200084498F803100097484380B200EB8000E0
:2036600041000020CDE90101FE48FFA10278801C35F00DF804E0FFE7761CF6B2032EA0D363
:20368000F8480021C170FD4824214170057007B0BDE8F08F1CB5044624280CD0CDE9001202
:2036A00003460322F649F74867F047FA2046FFF7ADFD01201CBD00201CBD2DE9F041F24F05
:2036C00097F81702C0077CD0F04D0324E54E95F8A505DFF8BC83012803D001F017FB08BB89
:2036E0004FE00DF094FCA8B1092811D2DFE800F010050C0E050C050C05000EF06DFB08B175
:2037000009243FE008243DE007243BE00D2439E0347937E010F001F9052803D01DF086FC37
:2037200028B901E004242DE095F89F0508B10A2428E098F85F0002280CD010F0EEF803286C
:2037400008D108F0ADFC18B197F83A03C00601D4022417E095F8A605012803D110F0DDF898
:20376000062802D108F09CFC60B197F81A02400605D508F095FC012801D9062402E005241B
:2037800000E02224B07900281FD1307984421CD095F89705002720B9707900F0DAF900286A
:2037A00013D198F8C000410603D5232C01D0182C0BD1C00709D12046242C06D000223946A8
:2037C00000E002E0BDE8F04164E7BDE8F08170B50646222401F041FBAC49A24D91F89715F3
:2037E000012904D0AA4991F8C010C90704D000F0A7F92220687170BDA34991F81712C90795
:20380000F9D0032817D020B1012804D0022805D103E0122402E0132400E01424A87900286C
:20382000E9D16879844201D1002EE4D02046BDE8704000F0D5B968792228DCD000F080F9FA
:20384000F4E770B505468F4800229249401E67F074F900210720FDF72EFA824C0020A071C4
:20386000242020712846FFF7B2FFE079242804D0BDE87040002201210CE7BDE870401CE701
:203880001CB5012219B100920223019203E00021CDE9002102230122002167F094F91CBD1F
:2038A0002DE9FE4F0C4600917A490546034602224431744867F041F9002D52D0012D4ED1E9
:2038C0006848801C34F02EFFDFF898B14FF00006DFF8B481E5B2200AB2460BF10B0943D0FE
:2038E00001283CD10124254210D066080127B740F8B20021FDF7DFF906EB86014944F8B253
:20390000FDF718FAF8B20121FDF7D5F96006040E042CE8D9444698F8CD01012167F076F9DA
:2039200094F8CE01022167F071F906EB860101EB090041788278C078114441430804000CFF
:203940000DD000EB800040000095CDE901A0012344489BF8002044A1801C34F098FEBDE8B0
:20396000FE8FBDE8FE4F44E4E8070DD0444698F8CD01002167F04AF994F81A0200F0010197
:2039800094F8CD01FFF77CFFA8070ED50126444698F8CE01002167F039F994F81A02C0F3B5
:2039A000400194F8CE01FFF76BFF68070ED50226444698F8CF01002167F028F994F81A0266
:2039C000C0F3800194F8CF01FFF75AFF06EB860101EB090000790028C1D0642145F48072B9
:2039E0004843CDE9002A01230290B1E770B52A4D0024285DFF2802D0002167F007F9641CD8
:203A0000E4B2032CF5D370BD10B51F4C94F81702C00778D094F8CD01FF2817D0FDF74DFA65
:203A200020B194F8CD01012167F0F0F894F81A02C00703D001210846FDF736F994F81A027D
:203A400000F0010194F8CD01FFF71AFF94F8CE01FF2835D0FDF731FA18B194F8CE0102211E
:203A60001CE01DE0E4132C0064697361626C655F6F66665F6F6E5F6C656400002F002C0091
:203A80004C0F80080330106F980C2C0050062C0004122C00E40D8008650E2C0067F0B6F8E0
:203AA00094F81A02800703D501210220FDF7FCF894F81A02C0F3400194F8CE01FFF7E0FE08
:203AC00094F8CF01FF2817D0FDF7F7F920B194F8CF01032167F09AF894F81A02400703D597
:203AE00001210420FDF7E0F894F81A02C0F3800194F8CF01FFF7C4FEFDF7F6F800F020F8DA
:203B00003B492220487110BD394880797047384910B500208871481C34F004FEBDE810404A
:203B2000802067F019B8704710B5324829F0B8FAFFF76AFFBDE810402D492F4834F050BD8A
:203B40002B4A0020FF2108321154401C0328FBDB7047122805D0132803D0142801D00020B3
:203B6000704701207047254991F81613C90601D5172100E01621884203D3202801D20020C7
:203B800070470120704710B50446014618480B30202909D92139C9B2194BC1EB01110F2252
:203BA000194466F0F7FF03E00F22FFF73EFA80B12046FFF7CEFF00280AD00D4A00200B320A
:203BC000D11E00EB8003D35C0B54401C0328F8DB10BDBDE8104000220A490B4866F0ADBF54
:203BE0000349242248710A710022012152E50000E4132C00273B0902A1380902980C2C0040
:203C000031002C00FC0D80080230106F90494968085C012800D0002070470EB500200A2139
:203C200000900346CDE9010189488AA10278401C34F02DFD0EBD10B58A4833F043FC8A4B3A
:203C4000012211461B68BDE81040022018472DE9FC417F4CFCF7F4FE84490B78984205D1EE
:203C600001228349834866F068FF2EE008700B21ADF8001080490025ADF8025091F83A209E
:203C80004FF00108D20740F201164FF4807727D0002891F840004FEA80700CD0002803DB8D
:203CA00091F82C0000212EE06068017869B9019680F8008010E0002803DB91F82C00012161
:203CC00019E060680178012904D0042066F044FFBDE8FC8101970570684666F038FFF7E7A7
:203CE000002891F840004FEA807007D00028E8DB91F82C000021FCF7E5FEE2E70028D3DB9D
:203D000091F82C000121FCF7DDFECDE710B5002806D14F48401C34F005FDBDE8104096E7FB
:203D200010BD2DE9F0414A4D00244FF010016868002871D066F03DFF4549504834F050FC03
:203D40004D4D95F83400C0071BD095F83A00474A00F00101C943517040F3000315F82C0FC1
:203D6000002201215B1C33F003FFA87B2C3DC00700D0012495F82C0000232246012133F092
:203D80008DFF0124274695F8341007FA04F0014211D095F83A1001420DD02E19002316F8AC
:203DA0002C0F1A46012133F0E3FE012330781A46002133F073FF641C082CE4D3012495F843
:203DC000341007FA04F0014211D095F83A1001420DD12E19012316F82C0F0022194633F036
:203DE000C7FE002230780123114633F057FF641C082CE4D3002495F8341007FA04F00142A8
:203E000020D095F83A10014205EB040090F82C1007D0002206E0FFE7012034F021FD6860F0
:203E20008AE701220A2033F041FC34B12819224690F82C00124932F081FA281990F82C0035
:203E4000FCF757FE641C082CD5D3BDE8F081000010142C006B6579305F6465626F756E63A0
:203E6000650000009B050902100528005E002C008C0F80080030106F980C2C000D3D090274
:203E8000AB0509020021821E0F2A1AD92E3A0E2A17D9652815D0D02813D0D22811D0D128C9
:203EA0000FD0D9280DD0D7280BD0DA2809D0802807D0912805D06B2803D0E02801D0E1283B
:203EC00000D10121F94A92F819321B060BD5F84B93F8BD30012B06D192F81923D20702D0A7
:203EE000D12800D1002108467047102817D008DC01280CD002280CD004280CD0082806D1B5
:203F00000BE020280DD040280DD080280DD000207047012070470220704703207047042041
:203F20007047052070470620704707207047E14908707047FEB5044612F010FDDE4E234639
:203F400096F88B1596F88A25CDE9002102900422DA49DB4866F0F1FD12F000FD10B186F89F
:203F6000F645FEBDD14D95F8F202C0070BD0302C01D0312C07D103F09CFC022828D003F008
:203F800098FC032824D096F88A05022810D195F81902000620D5C64890F8BD0001281BD13B
:203FA00095F8A502C00717D12046FFF76BFF78B996F88A0501280FD195F8A60200070BD5E5
:203FC00095F8A502C00707D12046FFF75BFF18B1BDE8FE4000F017BF95F81703000606D55E
:203FE000302C01D0312C02D1B24901200870582C01D0762C03D106F0E4FF0028B1D096F8F5
:20400000A6050028ADD113F089FF0028204603D0BDE8FE4013F01CBFBDE8FE4007F038B8D8
:2040200070B503460024A148224600EB420191F81C519D420DD191F81D11032916D00429C6
:2040400014D0052912D0062910D00A290ED00B290CD0521CD2B2082AE7D3984923460122F1
:204060005C31974866F069FD204670BD0124F4E77CB5054601248E48CDE9005490F85F30ED
:204080008E498F4803228431401C66F056FD8A4890F88A05012807D002B022462846BDE87D
:2040A000704000210DF078B97CBD2DE9F04105468148002490F8A505012830D17D4E7B4F58
:2040C0000F36707958B130780124A84210D097F8370028420CD07748007948B905E097F859
:2040E0003600284204D0052000E00620FFF7C0FF22F0B3FE10B11CF0D9FA01E003F0D9FB61
:2041000004EBC40107EBC10101EBC0012846FFF7ECFE084490F844003072FFF70BFFBDE8DD
:20412000F04100F070BE2DE9FC5F002581462C4605F06BFB5D4E604F032296F81B12C1F318
:204140008001CDE900105D4997F8A535D4315C4866F0F3FC97F8A50538B996F81B024007FF
:204160007DD505F052FB00B1012497F8A505BA46012801D0002C72D04E4F0F377879082830
:2041800004D00A2804D028B101250CE002250AE00C2508E0F879022805D3411CCDB20628B3
:2041A00001D3001DC5B296F81B024FF0010B800707D513F0B3FE20B1B9F1010F01D1032DFD
:2041C00015D00024B04608EB440090F81C214A4541D190F81D01A8423DD10CF018FF08EB9F
:2041E000C00020440C2D90F8D46006D01FE08AF8ACB5562006F04CFF31E0002034B1012CF4
:2042000007D0022C08D0032C0ED10AE098F81C0304E098F81C0306E098F81D0300F00F00F2
:2042200002E098F81D030009F979884213D1582E03D09AF8A505012811D198F838100BFA46
:2042400004F0014202D00820FFF712FF3E723046FFF770FE03E0641CE4B2082CB3D3BDE844
:20426000FC5F00F0D0BD1348407B7047114900200F31487270472DE9FE4F804603461048A4
:204280000C46009102220F49401C66F056FC094D064E0F35DFF820A0054F4FF0000B4FF059
:2042A0000109B8F10C0F7DD20EE00000980C2C0004122C0018142C0050062C004810800827
:2042C0000230106F80118008DFE808F0061C8C98E8FEFDFC7272FBFA96F8420008B1A879AD
:2042E00038B9E879012801D1E87838B1E0B2FFF71AFFBDE8FE4FFA4834F014BAE0B2FFF7D9
:20430000D4FEF6E7F6480027401C34F00BFA85F8059096F83F00012818D006EB470090F854
:204320001C11A14203D190F81D01022842D07F1CFFB2082FF1D3687907284BD096F83F0078
:20434000012803D0E648C01D34F0ECF92878A0420DD196F8280050B196F83700204202D03D
:204360000620FFF785FE96F83D00002820D0A8780028E0B233D0FFF7D6FEA878002817D1E4
:2043800096F82600002813D096F8351034EA01010ED1642148430094CDE90190D048022364
:2043A000801E00E004E04278CEA1001D34F06FF9BDE8FE8F072068712878A0420AD196F8AC
:2043C000281039B196F83700204203D00620FFF74FFEB0E796F83F000128B7D0E8E7FFF77F
:2043E00064FECAE706206871A87818B9E0B2BDE8FE4F5AE6E0B2BDE8FE4F94E6B848C01C1C
:2044000034F090F99AF8A505544678B1B448401D34F088F9B248801D34F084F9B04808308A
:2044200034F080F9BDE8FE4F05F0F9BB96F81A02000603D50FF0C8FD0128B9D008F069F8ED
:20444000002201211720FFF725F994F82606012240F0040084F8260684F8C8950220687142
:2044600097F88501A549C309A54866F066FB28F01CFB40B197F885014FF0000200061146F6
:2044800008D4302007E094F8260620F0040084F82606C7E700200CF07FFFC3E79048001DAE
:2044A00034F040F996F8A602C00781D10320687102208AF8AC058A490120891E487304E0C5
:2044C00071E059E047E02FE004E0BDE8FE4F562006F0DEBD04206871814885F80990401D06
:2044E00034F020F9002102201CF0CEFE0028A4D097F885014FF000020006114601D43320ED
:2045000000E002200CF048FF7E48C079C00794D07A497B4800222431401E66F00EFBBDE8CD
:20452000FE4F002014F081B86D48801D34F0FAF885F809B0002201211A20FFF7ABF88AF89A
:20454000C895052026E0322000E0282003B0BDE8F04F0CF021BF6248C01D34F0E3F8082038
:20456000687196F84000C00702D0E0B2FFF7DBFDBDE8FE4F25207BE55948083034F0D2F83D
:2045800085F809B0002201211A20FFF783F88AF8C8950920687197F885014FF000020006B9
:2045A0001146D2D4CFE74E48093034F0BBF80A2068711FE7FEB5544E494D002496F84100BB
:2045C000AD1E58B1642148430094CDE901400A236A784EA105F10A0034F059F896F82A0041
:2045E00000280BD0642148430094CDE901403C4806236A784BA1801D34F049F8FEBD384865
:2046000010B5C01C34F08EF83548001D34F08AF83348401D34F086F83148801D34F082F8E1
:204620002F48083034F07EF82D48401C34F07AF82B48801C34F076F82948C01D34F072F84D
:204640002748BDE81040093034F06CB82DE9FE4FDFF88CB0C0F307250BF10D0BC4B29BF803
:2046600005209BF807100095CDE901122349234604226831224866F060FADFF8BCA0DFF855
:2046800080C09AF8A505ACF1010C58B9012C09D003B02346BDE8F04F18490122B4316046CE
:2046A00066F04BBADFF83880DFF890900026164FA8F10208012D43D09BF804005D46A0438D
:2046C0008BF804009BF80600002873D0401EA871A87800286FD0A97900296DD142E10000A5
:2046E0001A142C006B65795F6C6F6E675F70726573735F726570656174000000B011800853
:204700000330106F8C102C00980C2C006B65795F666163746F72795F72657365745F7068F6
:204720006F6E65006B65795F666163746F72795F726573657400000050062C0004122C0051
:2047400097F81613090602D501218AF8CA15022833D0B88B28B107F06DFC10B1102010F09E
:20476000CCFF88F80C609BF80410454621438BF804109BF80600DC46401CC3B28BF8063010
:20478000002007EB400292F81C81884503D192F81D21092A19D0401CC0B20828F1D39BF8C4
:2047A0000000D846A04201D1012B17D0287B012810D0AAE0D4E0D6E038E103B00022BDE8E1
:2047C000F04FFB49604666F0B8B9012028738CF80210E4E797F81B020006EAD5102066F0D5
:2047E000B1F99AF8A50548B1012859D197F84200F0B398F80710002975D152E097F8190221
:20480000C00709D000F029FB804600F0FBFDB8F1030F01D1002843D097F81A02000603D5E5
:204820000FF0D2FB012837D097F8270088B197F83E1019B199F88F1049070AD46421484378
:204840000094CDE9016003236A78DAA1DF4833F01EFF97F82900A0B197F83E1019B199F882
:204860008F1049070DD4642148430523009400E017E0CDE90160D5486A78D5A1801C33F07A
:2048800006FF97F81B02400703D504F0BEFF002806D0BDE8FE4F8DE697F81B024007F8D475
:2048A00086E597F81A02000706D50CF0B0FB18B10CF0ADFB032842D197F82800D0B397F8E5
:2048C0003E1019B199F88F10490738D4642148430094CDE90160BD4804236A78C1A1401CAD
:2048E00033F0D5FE2BE01DE097F839000028D7D0642148430094CDE90160B44807236A7860
:20490000BFA1001D33F0C3FE52E5022B04D30C4688F80210FFF773FE97F8420050B198F84E
:20492000071039B1642148430094CDE901600B236A7800E003E0A548B7A1801DE2E797F8AE
:2049400025000028D0D0642148430094CDE901609E4801236A78B5A1801E33F098FEC3E76C
:20496000AE71B5E60446FFF74AFE2878A04207D098F80C0001280DD197F81B02000609D569
:20498000102066F0E9F89AF8A50520B1022866D0012864D097E097F81902C00708D000F036
:2049A0005CFA834600F02EFDBBF1030F00D1E8B397F81A02000603D50FF006FB012807D00A
:2049C00097F827000028687913D002280DD01DE097F81B02400719D46E726E719AF82616C4
:2049E00021F004018AF8261668E0542006F050FB0CE058B997F83E0018B199F88F004007EC
:204A000018D4542006F044FB05F009F96879042802D1512006F03CFB6879052802D1582033
:204A200006F036FB6879092804D100E046E0762006F02EFB6E726E719AF82616042021F0EB
:204A400004018AF8261666F087F897F81B02400702D504F0DAFEE8BBA878E0BBA8E497F8AF
:204A60002800B0B1002088F80D006879032824D0012801D0072829D197F83D1029B197F898
:204A80003F10012919D0072817D12046FFF70DFB13E097F83E0018B199F88F00400712D463
:204AA00097F81A02000702D50CF0B1FA28B903218AF8AC15562006F0EBFA6E71BDE8FE4F5C
:204AC000042066F049B86879012802D0C0B206280DD101E00BE03FE0287A362802D03728E5
:204AE00002D004E03B2000E03C20FFF723FA687920B1072859D0082858D0C8E0E87980B1BA
:204B00006978A14242D1401CE87197F8240018B32046FFF785FAF8B12C48C01E33F002FE92
:204B200008E00120E87197F82400B0B12046FFF777FA90B12878A0421FD097F82400642148
:204B400048430094CDE901602048002398F801203AA1C01E33F09BFD99E02878A04207D19C
:204B600097F8A302C00703D097F8A402C00618D5A878C8B1FFF7D7FA89E097F8A302C007BB
:204B8000DBD097F8A402C0060BD5D6E72A78A2425CD197F8A322D20758D097F8A422D2069D
:204BA00054D400F030F972E069E066E06BE00000941280086B65795F706F7765725F6F6E49
:204BC0005F6C6F6E675F7072657373001D142C006B65795F656E7465725F70616972696E35
:204BE000670000006B65795F706F7765725F6F66665F6C6F6E675F70726573730000000044
:204C00006B65795F756C7472615F6C6F6E675F7072657373000000006B65795F636C6963E6
:204C20006B5F616E645F7072657373006B65795F6C6F6E675F707265737300006B65795F5F
:204C40006D756C74695F636C69636B00012801D1E87850B10846FFF766FAA87848B1FFF7B5
:204C600062FA6C4833F05EFD11E00846FFF71DFAF3E72046FFF719FAF3E7A87828BB2046CE
:204C8000FFF713FA03E097F84000C0071DD0287900287FF405AE6C70A878E8706E71AE706B
:204CA000042065F059FF102065F056FFB88B00283FF4F6AD07F0BEF90028F9D0B98B03B072
:204CC0001020BDE8F04F10F0F3BC204652E76FF48041C84205D1034601224F494F4865F07E
:204CE0002CBF704770474B4910B50D31012008704B4828F0D5F94B494BA011F069FE45493D
:204D0000BDE81040491E4A4833F06ABC41480D30407A012800D0002070473E49891E8873E3
:204D200070473C48801E807B70473A48801E0078704781880022080A60F30702104661F356
:204D40000F2083E42DE9F04100203A4F01460446012307EB400292F81C514DB192F81D2127
:204D6000FF2A05D003FA00FC4CEA010C0CF0FF01401CC0B20828ECD397F834E000209C469B
:204D800001220CFA00F30B4200D1002213EA0E0F00D168B93D1895F84460302E07D0312E91
:204DA00005D095F88C30302B01D0312B00D1012432B13A1892F8D420302A03D0312A01D04B
:204DC00034B901E0012403E0401CC0B20828D7D31149234601222C31104865F0AEFE16495A
:204DE00091F8E400C0F38002A2420AD064F3820081F8E400BDE8F0410F480121E430FEF7C5
:204E000041B9BDE8F081034800210D304170C171C17070471A142C00C81280080330106FA0
:204E2000CF4C0902E54C0902444556494345000077420902980C2C0004122C000146022021
:204E4000062905D2DFE801F003030305040700207047012070470320704710B5FBF7A0FC9F
:204E600018B1F74890F8AD0510BD11F0E3FCBDE81040E3E72DE9FE43894604460125FFF7F8
:204E8000ECFFF04900270246A1F10A06032808D03772777200200F54401CC0B20A28FAD3F8
:204EA00029E0307A50B1844208D2001B032805DD707A022802D8401C70725AE077722346BE
:204EC000002011F80080B8F1000F06D0401CC0B20A28F6D30A2802D00DE00B54FAE7012080
:204EE00001EB000811F800C0401CC0B208F801CC0A28F5D34B72032A04D000F01AFB28462F
:204F0000BDE8FE83002034720246034604460D5C35B1521C401CC0B22B44D2B20A28F6D351
:204F200012B1B3FBF2F0C4B223460122C649C74865F003FE89F800407079002530B1844232
:204F400017D800D27471F07918B112E07471B471D5E742F210704FF001010097CDE901106E
:204F6000B8484FF005033278B9A1A0F1030033F08EFB0225C3E71CB5FFF760FF0B21ADF8DE
:204F80000010000202210190ADF80210684665F0DEFD1CBD1CB50B21ADF800100221ADF863
:204FA0000210012101EB00200190684665F0CFFD1CBD7CB5144605460A460021A94865F0EB
:204FC000E4FDCDE90004A1482B460322A649401E65F0B3FDA54890F87402A8420FD3A448C2
:204FE0004FF00002114690F88501000601D44B2000E02E2002B0BDE870400CF0CDB97CBDD5
:205000002DE9FF5F0F460446FFF727FF984D0646032804D195F8C000C00700D024B18848A7
:2050200090F8A51541B905E004B05620BDE8F05F06F02EB8012F22D1DFF83892804690F843
:20504000940599F80010CDE90014CDE9020786494FF0000A3346052278397C4865F06DFDA1
:205060004FF0010B6FB1642C3FD995F8991088F8941525F00BFA73490A3981F804B0BDE8D3
:20508000FF9F704D0A3D287930B188F8944525F0FDF9002028712EE0032E21D0012E03D895
:2050A00098F89405A042EAD2022EE8D098F894A588F8944525F0EAF90C2011F051FC6C48F9
:2050C000763006F054FE40B190F89400800704D599F80300001B0A280DDB89F803400AE0FE
:2050E00098F89405A042CAD9E0E788F8944585F8994025F0CBF9022EC1D0ACB15B4890F86A
:205100007402A04210D30A210A34B4FBF1F000EB80004006040E04F10A00B0FBF1F000EB22
:20512000800040064FEA106A002505EB450108EB811090F84C10490701D502F0D8FE6D1CBC
:20514000EDB2022DF1D3002505EBC51108EB810090F88611012904D1B0F8AC0108B11CF026
:2051600092FE6D1CEDB2022DEED300F0F1FC032E85D14CB13D4D95F87402A0425ED3314E07
:205180000A3E7078A0B13CE0002089F80000082288F8AC25CDE9000B2A4841F288320A38F4
:2051A00002920278062334A1C01C33F070FA66E7A87B00B399F80000012822D04FF43672C0
:2051C00033492046FFF7F5FE95F8A5120120890700D53C20A97B4FF47A7250434143002054
:2051E000CDE9000B034602911648327829A1093833F04DFA05E04FF4397225492046FFF7F8
:20520000D8FEB078D8B9A87E4FF0000200284FF001014FF01B004BD0FEF73CFAA87E4FF426
:205220007A71484300220290CDE9002B0548012332781CA1083833F02AFA3BE03DE039E0B3
:2052400050062C003C142C00141380080330106F736D6F6F74685F6261745F7265706F7238
:20526000740000000000406F70148008980C2C0004122C0060002C0064656C61795F6C6F18
:20528000775F6261745F706F7765725F6F666600E4CF0F026C6F775F6261745F7761726E18
:2052A000696E67006C6F775F6261745F6C656400FEF7F0F989F800B0E1E6022189F80010AA
:2052C00095F8A502400702D50FB9A24505D195F8A6028007F0D4002FEED004B02046BDE8CB
:2052E000F05F4FF44272984963E6F8B504460346009102229549964865F01FFC944B954E5B
:20530000954F964D9B1E6CB1012C3BD0052C64D0062C2AD1924833F005FABDE8F8405620D7
:2053200005F0B6BE96F8A50520B1FFF796FD032807D024E0854900223431184665F0FDFB6C
:205340001DE0287801281AD197F8F10270B16978884214D97C4996F894054FF4C7721739A9
:20536000FFF727FE6878401C6870F8BD96F89405BDE8F84074494FF4C172173919E6784803
:20538000801E3BE096F8A50520B1FFF766FD032807D01FE06D4900227831184665F0CDFBF5
:2053A00018E02878012815D197F8F10258B1A97888420FD9002201211B20FEF76BF9A878F0
:2053C000401CA870F8BDBDE8F840002201211B20FEF760B96248401E10E0614C0021E41E72
:2053E000A079FFF70DFEA0796179884204D90028E8D0401EA071F8BD5948001DBDE8F8405A
:2054000033F090B911F019BA10B5FFF7FBFFBDE810400121F4E551480078022801D2012078
:2054200070470020704710B5A0F5807001380ED14A49022008704A48801E33F073F9484800
:20544000401E33F06FF9BDE8104000F072B810BD10B5AFF2BF41002011F0DEF94049414817
:20546000C91E33F0BDF83C4890F81902C00704D0BDE810403C4844F03BBB10BD354910B5F8
:20548000032081F8AD05AFF2F341AFF2155011F0C3F933493348C91E33F0A2F82E4890F88D
:2054A0001902C00704D0BDE810402F4844F020BB10BD38B58188274D11F0FF00C1F30724A5
:2054C0000BD0012834D1244890F81902C0072FD095F8A50501281CD025E085F8AD450CB969
:2054E00004F09DFB95F8AD05032809D027F05AFA4FF4FA7027F04EFB95F8AD05032801D129
:2055000027F06BFB0020FEF762F9BDE83840FEF7D4B844B169462046FFF7ACFC022807D057
:2055200008B99DF8004000212046BDE8384067E538BD0B4810B5001D33F0F4F8084800213B
:20554000C01E4171817110BDE4CF0F023C1380080330106F50062C00980C2C0060002C00D1
:2055600035142C00EB520902275409022DE9F04F89B00F46034600910222E249E24865F05D
:20558000DCFAE24D0026AC1FCFB1601E33F0CAF8607805EBC0018A797AB18E7155F83000FF
:2055A00020B133F068F9607845F830606078401CC0B26070102800D16670A670E670607858
:2055C00005EBC0018B79002B7ED091F8079055F83020898807919046B2F804A0CC4A09EB09
:2055E000490702EB8717A34697F84920CDE90221CDE904A0F86CC349CDE90030C248E37801
:2056000007223831401E65F098FA9BF8030000285AD19BF801005A4605EBC00189790429B6
:2056200052D0BA4C0125083C03291DD01746B74A022949D1B64909EBC91301EB830191F854
:20564000AE31022B66D0904652F8300033F013F9787808EBC00148F83060401CC0B28E7148
:20566000787010287BD0BFE097F84C10C9062BD597F8491049B30620069097F89400C006DD
:2056800001D508200690DDE906133846424600962BF09CF9E8B35F469BF80100DFF86CB282
:2056A00098F8011098F800C05BF83030CA085B78CDE90412CDE9023C39780722CDE9000150
:2056C00090499148BC3101E067E049E0401E069B65F033FADFF83C9299F8150200065CD5D5
:2056E000BAF1000F04D099F81A02C0061DD424E07878B8460BEBC0015F468E715BF83000E8
:2057000033F0B9F898F8010047F83060401CC0B201E017E044E088F80100102801D188F880
:20572000016099F81A02C00602D50121032056E00096CDE90165032329E0FD704FF4FA6058
:20574000009534E04B46012273496F4865F0F5F9704890F81A02C006E7D4642026E042E0AD
:205760006A4F57F8300033F086F89BF8010007EBC00147F83060401CC0B28E718BF80100E9
:20578000102801D18BF801608BF80260D0E75F48227862A1C01F32F07AFF09B0BDE8F08FE4
:2057A00091F8C001032806D04FF47A700096CDE901600323EBE791F8AF0142460799FBF779
:2057C000B9FB0028C9D05348FD7090F81502000603D501210220FFF7C9FE0121022009B0D1
:2057E000BDE8F04FC2E67E70BE70A1E70B46474930B4891F454A497802EBC104A479002CC1
:205800000AD052F831108988884201D1012100E0002130BC1846A9E630BC704770B5032887
:2058200003D0022801D004281CD13848C01F32F079FF0024354E254606EBC400817939B1DD
:20584000857156F8340018B133F015F846F83450641CE4B2102CEFD32C48801F05704570C4
:205860008570C57070BD2DE9FE43284E0746B61F8846707831780092CDE901102649DFF8E4
:2058800088901C4615463B4604221C31484665F054F93378B11D01EBC300827942B11E4992
:2058A00001229C31484665F048F90020BDE8FE838771C47141F8338085805B1CD8B23070CF
:2058C000102801D100203070114904EB440001EB80120021154865F058F90F49009023467E
:2058E00002226831484665F028F900213846FFF73DFE0120DAE706494FF48070A1F888058D
:2059000070470000641580080330106F50142C0050062C00980C2C0094168008646174616F
:205920005F7472616E736665720000000000306F2DE9FE4314460A9E00919846CDE901463F
:205940000F46054603460422E449E54865F0F5F8012D14D0E348022D1ED0032D01D0042D10
:205960000BD1022C09D204EB440100EB8110334642463946009500F06BF9BDE8FE83DA48E1
:2059800090F816028007F8D503B0324641463846BDE8F04300F0E6B8022CEED204EBC411CB
:2059A00000EB810003B0334642463946BDE8F04300F5C07000F013B92DE9F84388460B461F
:2059C000154681460092014600220120FFF7B0FFC44E002404EB440006EB801797F89B00C9
:2059E000012815D197F84C00C00606D543462246494603200095FFF79BFF97F84C008006F3
:205A000006D543462246494604200095FFF790FF641CE4B2022CDDD3002404EBC41006EB21
:205A2000800090F8AE1100F5C07002290AD190F84500012806D14346224649460220009570
:205A4000FFF776FF641CE4B2022CE6D3BDE8F883A44908B591F82826120716D591F8FC159F
:205A6000A24A012912D0022913D0042914D092F8BF208DF800208DF801108DF802000322BF
:205A8000694640F20220FFF797FF08BD92F8BE20EFE792F88C20ECE70022EAE7FCB5924EE7
:205AA000904C924F96F8F61194F8942511F0060F06D001238DF800308B060ED401230DE006
:205AC00000218DF80010FF238DF801308DF802308DF803208DF8041024E002238DF8013061
:205AE000804B94F8A65593F895451DB18B060DD413460EE096F898325FEA816C03D41B01E7
:205B00008DF80230F4E78DF8023001E0012D12D000238DF80330890602D4012D0DD00022DE
:205B20008DF8042096F8A612090708D597F8981001F07F0104E02346EBE72246F0E7FF2163
:205B40008DF8051000990160BDF804108180FCBD1CB56846FFF7A2FF062269462220FFF709
:205B60002BFF1CBD2DE9F0410746D01D85B216468846284632F069FE04002ED05C49087822
:205B8000401C10F0FF00087001D101200870AA20207008786070681FA070000AE070277194
:205BA000380A607126B132464146A01D64F0F2FFA81E81B2601CFCF785FF6119002301F878
:205BC000010C2A4621460120FFF74DFE002804D12046BDE8F04132F04EBEBDE8F0812DE9EC
:205BE000F041054690F82E001E4690460F460228F3D1B01D32F029FE0400EED0AA202070C4
:205C000095F83100401C10F0FF0085F8310002D1012085F831006070B01CA070000AE07015
:205C20002771380A607126B132464146A01D64F0B1FFB61DEB79B2B221460220FFF713FEF7
:205C40000028CAD12046BDE8F04132F014BEC4E72DE9F0470546DDF8208000201E4691463E
:205C60000F46B8F1030F03D0B8F1040F02D002E0102000E02020E96C01422DD0B01D32F0FD
:205C8000E4FD040028D0AA20207095F85600401C10F0FF0085F8560002D1012085F85600F5
:205CA0006070B01CA070000AE0702771380A607126B132464946A01D64F06CFFB61DEB79A2
:205CC000B2B221464046FFF7CEFD002804D12046BDE8F04732F0CFBDBDE8F08760178008AA
:205CE0000230106F50062C00980C2C0004122C00D0142C0038B50C46012815D000F6FD50BF
:205D0000B0F5005F34D12248C079C00736D069464FF40170A3F7CAF99DF8000008B30228D0
:205D20001FD003281DD01FE01A4821680622C0F89815A188A0F89C1518481749044664F015
:205D40002EFF48B9154813497038D1F898250267B1F89C15A0F874102046BDE83840A3F732
:205D60000DBAA079012804D094E8070012F0DBFF38BD0121204644F05DF938BD2046BDE8E0
:205D80003840012144F056B9054827F089B900008C102C0050062C00FBCF0F0274122C00A9
:205DA000F55C09022DE9F0410D46060016D0ADB1FE48074664F02FFFC4B21D2C00D91D24B5
:205DC000601C28700920687022463946A81C64F0E1FEA41C34700120BDE8F0810020FBE733
:205DE000F0B5C4B2F24E87B0C4F3810530780391C4F30112C0F301130095CDE90132C0F3D6
:205E000081030522EB49EC4864F097FE3078C007B0EBC47F27D0E00725D0E84991F870003C
:205E2000C0F3C003C0F34002C0F3800700F00100CDE90307E248CDE90523C97990F819021F
:205E400001F00101C0F30012C0F340108DE80700D648D8493038082290F85F30D648A8312C
:205E6000401E64F06AFE3078C0F38100A84202D001200EF073F8CE48C01EC47007B0F0BD5A
:205E80002DE9F04F87B091460D468046CDE9005943460322CB49C84864F04FFE404605F089
:205EA000D0FFC74E044603216DB10127012D7DD0022D7CD0032D03D1002C01D080F82E109D
:205EC00007B0BDE8F08F002CFAD096F8160294F843704FF0000AB346800710D5E0798DF880
:205EE00004008DF805904FEA19208DF80600009101AB002240F201110120FFF719FD002592
:205F00001DE0B14A294604F1340012689047060013D0706888B1A18F0090CDE90151A949EC
:205F2000A548434604225031401E64F006FE736894F843104A46404698476D1CEDB2A08F88
:205F4000A842DED80220FFF769FC01F067FB40450DD101F066FB21F0FEFF22F004FC10B13B
:205F6000062022F09FFC26F058FB4FF0010A974DFF262978414504D18D48C01E32F0D2FBF4
:205F80002E706978414504D18948801E32F0CAFB6E70D4E90001CDE9050120680390A08836
:205FA000ADF81000ADF8129003AA01E054E05DE00021404617F0CBFA204605F0C4FF05AAA6
:205FC0000121032011F032FB11F0A0FA18B978490020C91EC88019F053FC9BF819025C462A
:205FE000C0061ED506F05CF80346764972480122B031C01E64F0A1FD012F12D0082F10D0DF
:20600000052F0ED00E2F0CD0BAF1000F09D006F047F830B121F071FF002021F05EFF00F0AD
:20602000CAFC05F0F4FF054605F0F3FF854207D121894FF480700FF03BFB0A2010F090FC19
:20604000062008F056FD02200DF088FF03AA0121404617F07CFA33E70028FCD1404605F0CD
:206060004EFF0028F7D080F82E7029E7002CF2D05248C07AC00702D0404612F0E1FD404677
:20608000A6F709F9A08502200DF068FF40F64802FB214046A5F74FFA94F82E0001281BD1E0
:2060A000050228460FF029FB022084F82E00424604F12A0140F27520A6F75AF896F8160278
:2060C000800706D5E31D0022294601200097FFF72FFC062008F00DFD96F8F601C0F3410053
:2060E000022808D1002000900190684610F0D0FB684601F0AFF994F8460038B994F8470006
:2061000020B1A08D002220211DF0D3F8A08D1AF0A8FC01F083FA40459DD14FF4FA700090CD
:20612000122124220023404634F0CAFAC8E608B5302909D15078009022491F4813780222DE
:20614000D831401E64F0F9FC002008BD38B50D4604000CD0009594F82F3002221C49164823
:2061600064F0EBFC94F82F00A6F75AF908B1002038BD84F84350012038BD2DE9F043DFF826
:20618000388087B015460C4606460346A8F10108032210494046CDE9004564F0CEFC0B4FB5
:2061A000012C23D0002C1ED1787815E034122C00D5142C00281880080330106F8C102C00F6
:2061C000980C2C0098198008F412280064002C002C1C8008B01A8008B04204D1FE4832F0A7
:2061E000A1FAFF20787007B0BDE8F083304605F028FE0400F7D0F94890F81602800710D585
:20620000E0798DF804008DF80550280A8DF806000320009001AB00224FF481710120FFF738
:2062200087FBDFF8B493A9F10109A5B14FF00008B5F5BD6F78D03E706420CDF80080CDE932
:206240000180002399F80220E5A1484632F01FFA84F8CD81C7E794F84000012540F00200FC
:2062600084F8400094F84100002240F0020084F8410084F84450114622200BF08DF8032038
:206280000DF06CFE05AA01A93046A6F755F89DF81400012801D0B8B11BE006AA03A901A8D2
:2062A00038F002FFA8B19DF8180090B903982060BDF81000A080D048C07AC00709D003A9C8
:2062C000304613F0D7FB04E001982060BDF80800A0802146032011F073F918B9102120463A
:2062E000FFF734FF22460021032011F09FF9A18DA9F8061000220321304617F028F994F8DB
:206300004700C8B1204611F08AF9A8B90121204611F075F9B94890F8A60530B1B84890F8DE
:206320005F00012803D007E038E0002200E00122002114200BF030F894F84400009014F8FA
:20634000403F0222AF49404664F0F7FB14F840094FF4FA77C00706D094F84400012802D164
:20636000384621F0EBFD01F059F9B04206D11221242200233046009734F0A2F920460DF0CF
:206380002EFA84F8CD51A08DAFF25D2136F095F800287FF45FAF84F8CE5124E77E7041F2CC
:2063A0008830CDF80080CDE90180012399F8022095A189484AE78848401EC088704770B548
:2063C0000D4605F03EFD040014D06585012584F8CC5194F8CE0100280CD194F8CD010028C7
:2063E00008D0A08DAFF2B92136F067F8002801D184F8CE5170BD10B501242146A4F7FCFBF3
:20640000234680490122BDE810405C31834864F094BB7949CA79D2070BD0794A92F85F20B2
:20642000022A01D012F0D0BCC97AC90704D012F03FBD0121A4F7AEBB7047022803D00028EA
:2064400004D1002902D001200DF088BD704738B50446406800906B497048638801229031A8
:20646000401C64F06AFB608800993DF09CFAA078694635F0B9F960880C280CD2DFE800F074
:206480000B060C0B151C0B0B0B2A252FBDF802100098FFF7A5FC38BDBDF802209DF801109C
:2064A0009DF80000FFF7ECFC38BDBDF802109DF80000FFF784FF38BDBDF802209DF801102D
:2064C0009DF80000FFF759FE38BD9DF80000FFF792FF38BD9DF80000FFF79BFF38BDBDF805
:2064E00002109DF80100FFF7A8FF38BD2DE9F04186B00C46074600260D683DF09BFA214682
:20650000384635F049F9454C512F28D008DC012F16D040F60350152F0BD0162F0AD12DE0BE
:20652000602F07D0662F06D0802F03D1284637F001FE064684E02988E878FFF77EFF7FE0E0
:20654000688800902F492B780222B831204664F0F4FA002010F0ACFA10F0D8FA70E0A878E3
:2065600010B1022803D06BE000222D4902E02C4900221831204664F0E0FA61E00646002077
:206580000090019002900390FF208DF8100029680091A888ADF8040004AA02A9684638F0D7
:2065A00083FD40F60458A0B1144F002404EBC41007EB800090F88611012906D1062202A9C9
:2065C00000F5C07064F0EBFA60B3641CE4B2022CECD30948C07A26E0D3142C00980C2C00D3
:2065E0006761705F646973636F6E6E6563745F64656C6179000000008C102C0050062C0022
:2066000004122C00F81A80086761705F776169745F666F725F61757468656E000230106F17
:20662000FC1B800807E0C0070AD0A979284612F01AFA28B903E0404606B0BDE8F0814646EB
:206640003046F9E770B505460024204605F0F9FB68B1817959B190F82E20012A01D0022AE6
:2066600005D190F8461011B92946FFF76FFD641CE4B2022CE9D370BD012808D1BB4890F811
:206680001902C10601D4800601D500F0F6BF704730B5B74CB54B002094F8701093F8A62224
:2066A000CD0707D10D0705D44D0703D4890702D5110700D4012093F819120D0700D5401CA7
:2066C000C90600D5401CAB4991F88F10C90600D5401C93F8A412890600D5401C110700D5B0
:2066E000401CE179C90704D0A17A401C090600D5401CC01CC0B230BD10B58AB0242168465C
:2067000064F052FA01248DF80040FFF7C1FF01908DF80840A4F7B1FD022800D30220944996
:20672000039091F87000C20705D1020703D4420701D4800714D58DF810408DF81140B1F86C
:2067400082000521C000B0FBF1F08B490590081FFFF728FB88480838007906908648079018
:206760008DF82040684634F0BFFF0AB010BD08B509880346009102228049814864F0DDF915
:2067800008BDF8B50746034600917C497C4802223831401C64F0D1F900257A4CFF26B7B158
:2067A000012F13D17448C01F31F0BCFF607805F048FB00280AD0667010F8401F21F00201EB
:2067C0000170417821F0020141700571F8BD6A48083831F0A7FF207805F033FB0028F5D03E
:2067E0002670E9E710B5684826F05AFC6748A4F748FD10F07FF8FFF77FFF10F09FF9AFF29F
:20680000910043F04BFE10F03BF9FBF721FB5A49BDE81040891F5E4831F0E2BE70B55348C2
:2068200092B090F8F60110F0060F02D040F6411001E040F64210ADF82C000BAA022140F2E5
:206840002120A4F721FD4B4A2821303240F22220A4F71AFD00248DF834400DAA012140F2B0
:206860002320A4F711FD42484FF40A764FF00105C07AC00706D08DF8405010AA012130465C
:20688000A4F702FD8DF8405010AA01213046A4F7FBFC8DF824400920ADF8380008948DF855
:2068A000284008AA042140F21120A4F72BF809AA012140F21220A4F725F80AAA012140F27F
:2068C0001320A4F71FF80EAA02214FF40570A4F719F8A4F7D2FC022800D30220A4F796FCDF
:2068E0008DF83C500FAA012140F23720A4F7CCFC8DF8144010208DF818508DF800408DF880
:206900001C40ADF80200ADF804008DF83050ADF80C40ADF8104007AA01214FF45070AAF769
